:020000040800F2
:10000000682B0024E10200089B600008735E000872
:1000100099600008AF040008CF79000800000000D4
:1000200000000000000000000000000079700008DF
:1000300053320008000000004D6E00087B7000087D
:10004000FB020008FB020008FB020008FB0200089C
:10005000FB020008FB020008FB020008FB0200088C
:10006000FB020008FB020008FB020008FB0200087C
:10007000FB020008FB020008FB020008FB0200086C
:10008000FB020008FB020008FB02000859320008CE
:10009000FB02000865320008FB020008FB020008B2
:1000A000FB020008FB020008FB020008FB0200083C
:1000B000FB020008D9710008E5710008FB02000886
:1000C000FB020008FB020008FB020008FB0200081C
:1000D000FB020008FB020008FB020008FB0200080C
:1000E000FB020008FB02000800000000FB02000801
:1000F000FB020008FB020008FB020008FB020008EC
:10010000FB020008FB020008FB020008FB020008DB
:10011000FB020008FB020008FB020008FB020008CB
:10012000FB020008FB020008FB020008FB020008BB
:10013000FB020008FB020008FB020008FB020008AB
:1001400000000000000000000000000000000000AF
:10015000FB020008FB020008FB020008FB0200088B
:10016000FB020008FB020008FB020008FB0200087B
:10017000FB020008FB020008FB0200080000000070
:10018000FB020008FB020008FB020008FB0200085B
:10019000FB020008FB020008FB020008FB0200084B
:1001A000FB020008FB020008FB0200080000000040
:1001B000FB020008FB020008FB020008FB0200082B
:1001C000FB020008FB020008000000000000000025
:1001D0000000000000000000FB020008000000001A
:1001E000000000000000000000000000000000000F
:1001F0000000000000000000FB020008FB020008F5
:10020000FB020008FB02000800000000FB020008DF
:10021000FB020008FB020008FB020008FB020008CA
:10022000FB02000800000000FB02000800000000C4
:10023000FB020008FB02000800000000FB020008AF
:10024000FB020008FB020008FB020008FB0200089A
:10025000FB020008FB020008FB020008FB0200088A
:10026000FB020008FB020008FB020008FB0200087A
:10027000FB020008FB020008FB020008000000006F
:10028000FB020008FB020008FB020008FB0200085A
:1002900000000000FB020008FB0200080000000054
:1002A00000000000FB020008FB020008FB0200083F
:1002B000FB020008FB020008FB020008FB0200082A
:1002C000FB020008FB020008FB020008DFF80CD06C
:1002D00000F0B0F80048004725830008682B002490
:1002E0000648804706480047FEE7FEE7FEE7FEE7D0
:1002F000FEE7FEE7FEE7FEE7FEE7FEE7197100080E
:10030000CD0200082DE9F05F0546002092469B468D
:1003100088460646814640241BE02846414647461B
:10032000224600F076F853465A46C01A914110D33F
:1003300011461846224600F05DF82D1A67EB0108B9
:100340004F4622460120002100F054F817EB000927
:100350004E41201EA4F10104DFDC484631462A4606
:100360004346BDE8F09F10B5431A934209D2831863
:10037000881803E010F8011D03F8011D521EF9D280
:1003800010BD40EA01039B0703D009E008C9121F12
:1003900008C0042AFAD203E011F8013B00F8013B3F
:1003A000521EF9D210BDD2B201E000F8012B491E55
:1003B000FBD270470022F6E710B513460A46044602
:1003C0001946FFF7F0FF204610BD421C10F8011B34
:1003D0000029FBD1801A704710B54843044607F046
:1003E000C7FF002805D00021002C02D0641E015553
:1003F000FAE710BD202A04DB203A00FA02F10020BF
:1004000070479140C2F1200320FA03F31943904052
:100410007047202A04DB203A21FA02F000217047BD
:1004200021FA02F3D040C2F120029140084319465C
:1004300070470000064C074D06E0E06840F00103FD
:1004400094E8070098471034AC42F6D3FFF742FF18
:10045000F48F00081490000870B58C1810F8015B38
:1004600015F0070301D110F8013B2A1106D110F84D
:10047000012B03E010F8016B01F8016B5B1EF9D151
:100480002B0705D40023521E0DD401F8013BFAE7D7
:1004900010F8013BCB1A921C03E013F8015B01F842
:1004A000015B521EF9D5A142D8D3002070BDFEE7F2
:1004B000F0B50025EFF31081C16272B6C1692E4616
:1004C00009B1C6610125818CD9B1018A10274FF08D
:1004D000140C14E001EB4103C26807EBC30452F8AB
:1004E00004E0BEF1000F08D00CEBC303D35823B1D6
:1004F0001651828C521E82840225491E89B200291F
:10050000E8D1C16A81F31088002D03D0418A41F0FF
:1005100080014182F0BDFEB5040016460D4610D0A4
:10052000616800204861284600F033FAE0680C2139
:1005300013238DE84300D4E90102294600F00EF8A8
:10054000FEBD4FF0FF30FEBD002805D0006800283A
:1005500002D0806803F010BC704700002DE9F8431A
:100560000C464FF0FF38DDE90867E8B3E2B3DEB3CD
:10057000214900250460086042600381C66007824B
:10058000458245618561C5610121016285844FF61F
:10059000FF7C856228460BE000EB4001401C80B2E6
:1005A00022F8215002EB8101A1F802C04D608D605C
:1005B0009842F1D3002006E000EB400106EBC101B8
:1005C0000D61401C80B2B842F6D3E068804700233A
:1005D0000095A0680222194602F0E6FF20B90749FB
:1005E0004FF47062A06800E003E002F067FF0028AB
:1005F00000D04046BDE8F88328000024110A801B83
:10060000016889680968496C01F0E002816A9142D9
:1006100014D0418A1306826202D541F004010CE035
:100620004FF6F8431940530602D540F2011319431F
:10063000920602D540F20222114341827047000027
:100640002DE9FF4F8DB0914604004FF0FF31DDE9F9
:100650002086DDF874A00FD0B9F1000F01D1D4F8D5
:100660001C900027B8F1FF0F4FF0010B276007D057
:10067000A8F101007F2805D3084611B0BDE8F08F2E
:10068000C4F800B0E06B00F039FC0028F5D1206818
:1006900010B16FF01200F0E7584D022329684A6844
:1006A00002F1180102F16C000C32CDE90231112186
:1006B000CDE90010CDE904866168D4E9070300F0B4
:1006C00099F90028D9D160680A2208F5E0610697F7
:1006D00007974346CDE90802CDE90470CDE90A1633
:1006E000DDE91B1203970091CDE9012028684A46F5
:1006F00041682069903100F099FE0028BDD1296839
:1007000001AB6068092249688431009183E84500A3
:1007100013464946D4E9050200F0B0FA0028ACD1EE
:100720002846002500684768B43705F1080003AB88
:1007300081B26068EA1DCDF800A092B283E8430060
:10074000CDE90102C5EBC500616A3A46434600EBBC
:1007500040000C3701EBC000109901F025FB002888
:100760008BD16D1C2DB2012DDFDBDFF890A00025B1
:10077000DAF800004768C03705F1090002AB81B222
:10078000606805F1080292B283E84300CDE90002F7
:10079000A06AC5EB05113A4643460C3700EBC10091
:1007A000109901F048FA00288CD16D1C2DB2012D52
:1007B000E2DB03206268029602235546CDE9002061
:1007C000DAF800004168E06A603101F0B1FF00280A
:1007D00094D16068CDE903B0CDE905B629684A68CF
:1007E000029002F1A80102F13C032432CDE900316C
:1007F000206B0C3B494601F033FE3EE72C040024FD
:100800002DE9FF4F87B09846050093464FF0FF3023
:10081000DDF850900BD0A8F101017F2902D22868A1
:1008200018B907E02968002901D06FF012000BB059
:10083000BDE8F08FDFF8BCA00024DAF800004668BD
:1008400006F1CC07FC360020042C04DA08EB042067
:1008500000F5007080B2D5F804C0E11C8BB23146BF
:100860000C36CDE9021C3946089A0C37CDE9000157
:10087000C4EB4410CDE90439696B00EB40002B6BED
:1008800001EB8000594600F015FF0028CFD1641C11
:1008900024B2042CD7DBDAF800000024466806F501
:1008A000967706F5AE760020042C04DA08EB0420D7
:1008B00000F5C07080B2D5F804C0211D8BB231465E
:1008C0000C36CDE9021C3946089A0C37CDE90001F7
:1008D0005B20CDE904396043A96B2B6B01EB8000F1
:1008E000594601F0F9FF0028A1D1641C24B2042C60
:1008F000D9DB9CE72C040024F0B50024DDE9066573
:10090000059FF8B1F6B1EDB1B0F808C08C4519D922
:10091000D0F804C001EB41010CEB8101C1E9016594
:10092000C2F30A0517B14FF4004200E0002215435C
:100930000D80C3F30A0242F400424A80806918B174
:1009400000BF01E04FF0FF342046F0BD70B5044613
:10095000086900260D4638B1206A18B9608A40F04F
:10096000080060826FF00806EFF31080E06272B654
:10097000204607F0A3FD10B16869E06104E00120A2
:100980002861A08C401CA084E06A80F31088304667
:1009900070BD002802D0806803F0EEB9704710B532
:1009A00001680446002906D0886803F0CCF90028C5
:1009B00001D10120606110BDF0B504004FF00000CE
:1009C000DDE9056514D0278A8F4211D9E06801EB73
:1009D0004101C2F30A0200EBC10013B14FF4004120
:1009E00000E000210A4302600671002101614561B7
:1009F000F0BD00002DE9FF4F85B0984604008A46FF
:100A00004FF00000DDE91656DDE912B7DDF854902D
:100A1000039071D0079800286ED0B8F1000F02D172
:100A2000BBF1020F68D2002F66D0BAF1000F63D07D
:100A3000002D61D07F2D5FD85FEA09005CD0502186
:100A40002046FFF7B7FC0023C4F814A00798012242
:100A5000194605F06AFBE06000B300210170C4F89C
:100A60001880012384F81CB002AA3846009304239E
:100A700005F016FC029980462148014051EA080120
:100A800013D01EB1384605F038FB3060B8F1000FC6
:100A90000BD06FF00B0009B0BDE8F08F002EF8D03E
:100AA000079805F02AFB3060F3E70298012105F171
:100AB000800201EBE0706062124800210B46C4E93D
:100AC0000C401148A06304F13000B860082084F89D
:100AD0002850CDE9000114995046FFF76DFFE06200
:100AE00048B10A48C4E910400948A0644034C9F834
:100AF00008400398CFE7FFE74FF0FF30CBE7000057
:100B000000F8FF7FA3630008AD64000835630008A8
:100B1000096500082DE9F843044640690027884626
:100B2000268A458AAE4251D06E4040F201100642FC
:100B300025820AD00542009701D0012100E0002162
:100B400020460023012202F0E3F8B00748F2201902
:100B500007D507224B4620460097C5F3400102F017
:100B6000D7F8700708D5122248F2401320460097A4
:100B7000C5F3800102F0CCF8300708D5142248F202
:100B8000101320460097C5F3C00102F0C1F83006EB
:100B900008D5152220464FF401430097C5F3C01134
:100BA00002F0B6F8B00507D506224B46204600975E
:100BB000C5F3402102F0ACF8300507D513232046D9
:100BC0001A460097C5F3C02102F0A2F8617900200F
:100BD00001B10120217A09B9617A09B140F08000A0
:100BE000E168B8F1000F087035D0217F022932D3B7
:100BF000A57F617FA9422ED0E16A096900292AD127
:100C0000A16951F8352042EA004041F83500A16958
:100C100001EBC502E16AC1F805005068C1F809009E
:100C2000E16A6069FFF792FE217F6D1CE8B288429D
:100C300000D30020A077E17F01290ED002290AD13C
:100C4000617F884207D10023E77720221946009769
:100C5000204602F05DF8BDE8F8830220E07720220C
:100C60000097C3020121F3E70A79491D012A03D144
:100C7000097841700121C160704700002DE9FC5FD7
:100C80000400984616468946DDE90EB5DDE90C7A82
:100C900018D0B9F1000F15D0A6B19FB15FEA0A00D4
:100CA00010D030212046FFF785FBC4F818A042463B
:100CB000C4E90096A4F81CB0B878411E414505DA95
:100CC000401E04E04FF0FF30BDE8FC9F104620724C
:100CD00000266FF00B0928E00120009006F10108C2
:100CE0003846042308F0FF0101AA05F0D9FA30B113
:100CF0001DB1384605F005FA28604846E4E701983A
:100D0000314683B2C0F30742204600F023F80600C4
:100D100009D01DB1384605F0F4F9286016F10C0F22
:100D200001D03046D0E708F0FF06207AB042D3D891
:100D30000648C4E908400648A062203427B10020D4
:100D4000BC600028D4D1BFE70520FAE7DF620008C5
:100D5000B56600082DE9FE4300254FF0FF3818B1B5
:100D600090F808C08C4502D84046BDE8FE83ABB180
:100D7000A2B100246FF00B090DE04668A14206EB1A
:100D800004173E68BF6804D01FB1F6B2964200D186
:100D90004D46641CE4B2A445EFD82DBB44684FF423
:100DA0007A7504EB01146B4322700025A36084F86C
:100DB0000180E5602AB123B10123A37002F5E0624E
:100DC00002E0A5600022A570084C4368009503EB83
:100DD0000113CDE90134838B8069194440F2FF731C
:100DE00089B2FFF789FD05462846BEE7690C000871
:100DF0002DE9FF4F81B0054640694FF00108C1461B
:100E00004FF0000A0299C346F1B3F0B300263FE069
:100E10006868039F00EB0614A078A0B3E16841B1B5
:100E2000617851B10220A0700027C4F804A0C4F872
:100E30000CA0A07802280DD01EE0022807D1009651
:100E40001C222868012148F2301301F061FF84F868
:100E500002B0ECE7606838446060A16888420DD356
:100E600000961B222868012148F2301301F050FF40
:100E7000FF2060700320A0704FF000086078052804
:100E800001D04FF0000901E006E006E0761CF6B262
:100E9000287AB042BCD815E0A0B1002152464B1EC2
:100EA0005C4609E0686800EB01104370C260867818
:100EB00006B18470491CC9B2287A8842F2D84FF032
:100EC0000008C146E86890B9B8F1000F0FD00023C0
:100ED000CDF800A028681B225446194601F018FFDF
:100EE0000023009428681C22194601F011FFC5E96F
:100EF00003890298686105B0BDE8F08F28B101460A
:100F0000002008604860886070474FF0FF307047ED
:100F10002DE9F04F0668994600234CF25038DDF871
:100F20002CB03144DDE90CEA1C461D46016019462F
:100F300075E0477AACF5404CACF5547CC0F800C085
:100F40000379012547F300065B1C761CDBB20371B5
:100F5000032B59D900230171BF071C4601D402237A
:100F600000E0022447797F1CFFB24771012F04D0B3
:100F7000022F05D0062F07D105E043F0040303E05C
:100F800044F0040400E0417187797F1CFFB287714F
:100F9000092F0DD2DFE807F00C050805080C0C0C32
:100FA0000B0043F0080303E044F0080400E0817103
:100FB000C7797F1CFFB2C7710B2F0ED2DFE807F095
:100FC0000D0609060906090D0D0D0C0043F010036E
:100FD00003E044F0100400E0C171077A7F1CFFB207
:100FE00007720D2F15D2DFE807F014070A070A076A
:100FF0000A070A1414140D0043F0200309E044F01A
:10100000200406E0017204E0847A07F07E0304F015
:101010007E0416B143F0010301E044F00104D0F86E
:1010200000C0C44585D2002D3CD0099909B10121E9
:101030001EE02AB1BBF1000F05D003F0200117E03C
:1010400003F0010114E0BEF1000F02D003F0100123
:101050000EE0BAF1000F02D003F0080108E00A998F
:1010600011B103F0040103E00E9909B103F002018C
:10107000B9F1000F02D004F001020BE00F9D15B191
:1010800004F0100206E0042A0ED07F2A0FD0052AB1
:1010900010D0002209B143F080030AB144F080046B
:1010A00043728472BDE8F08F04F00402F2E704F0AA
:1010B0000202EFE70122EDE7F0B587B01C461346C8
:1010C00088B140F2E47542680B266F1CCDE90465D7
:1010D0001225CDE90272CDE90025006C224600F010
:1010E00005F807B0F0BD4FF0FF30FAE72DE9FE4FED
:1010F00004001D4690460F46DDE90EB6DDF830903F
:101100004FF0FF3A0DD0B8F1000F0AD04DB15FEAB1
:10111000090006D02EB12878411E7F2904D3FF286C
:1011200002D05046BDE8FE8F74212046FFF742F9F9
:1011300097E80F00002784E80F00277440F2FF7340
:1011400084F834705A46C4E90E85287884F8400043
:101150000C4867640097CDE901400D994846FFF7B8
:10116000CBFB0546E6660820CDE9000700233046A4
:10117000DDE91012FFF720FC206700B9554628462C
:10118000D0E70000F91200082DE9F0470446406C52
:101190004FF00008002877D0216F00229146C1F857
:1011A0000520C1F8092094F8480051286DD00EDCC4
:1011B000152851D006DC042812D0112815D0132888
:1011C00010D125E0172854D043280BD10BE0A0F113
:1011D0005A0105296FD2DFE801F063676F7377006A
:1011E0004FF0010880E0442076E094F84A000021A6
:1011F000421E7E2A09D9FF2807D00121226F94F8C8
:1012000048005071206F81716AE0E26B1070F5E761
:10121000626D6AB394F84A10002594F84B002E468C
:1012200081B905280ED009280CD8324931F8107040
:10123000A06D3946904710B1A06B078003E0FF25F1
:10124000012600E00125216F94F848004871206FC5
:101250008571206FC67143E0606D48B1E26D3AB1AF
:1012600094F84B0094F84A1041EA0021206E904710
:101270003AE0636E00254BB1A06B0288E06B017809
:10128000A06E984720B104E030E024E0012500E0A2
:101290000225216F94F848004871206F85711FE086
:1012A000216F4871206802E0216F48716068216FEA
:1012B000C1F8060014E012E0216F4871A068F6E75B
:1012C000216F4871E068F2E7216F4871216F94F84F
:1012D0004000887104E04F20216F487100E01AB18E
:1012E000D4E91B01FFF732FBC4F844904046BDE847
:1012F000F0870000C4880008F0B50A79082A17D1E1
:10130000426C002A14D111F8052F002301261D4636
:10131000042A08D0037C0BB30B68C0F84930496835
:10132000C0F84D1078E0497819B1012900D1067450
:10133000F0BD017C01290AD190F84010FF2906D1A7
:10134000C16B0978FF2902D0012380F84820057479
:1013500045618561C5610562C3BBF0BD422A3AD0D3
:1013600007DC402A33D0412AF7D1D1F8011081613E
:10137000F0BD432A33D0512AFAD1C36B1B78FF2B1F
:10138000F6D190F84030FF2BF2D14B798C79CF79A0
:101390001F2B01D9802BEBD1032CE9D8032FE7D8E1
:1013A000D1F801C0802B2ED090F83410A142DFD1AB
:1013B0004FF0FF3150F8245099400D400CEA010CD9
:1013C0006545D5D180F8347023B325E026E0D1F807
:1013D00001104161F0BDD1F80110C161F0BDD1F83B
:1013E0000110016284694368A342F7D1C46983682C
:1013F000A342F3D1C3688B42F0D14369016899429B
:10140000ECD1067408E080F8345045628562C5620C
:10141000056301E0A742F4D380F848204664F0BD9C
:10142000002801D090F90000704700002DE9FF4F1F
:1014300085B0174604000D464FF0FF3BDDF8749071
:10144000DDF85C801A9E73D0002D71D0002F6FD014
:10145000149800286CD0002E6AD05FEA080067D08C
:1014600034212046FEF7A6FF4FF0000A84F800A0C2
:1014700084F801A04FF47A7208980123E070514675
:101480001298A080276213985043E06003AA284670
:101490000093022304F004FF60B1B9F1000F04D0FF
:1014A000284604F032FEC9F800006FF00B0009B0C6
:1014B000BDE8F08FBDF80C004FF47A714843A0608E
:1014C0001C48C4E904401C48A06104F11000A86055
:1014D000D4E90201814200D9E06014AD17485746B3
:1014E000CDF800A040F2FF73CDE9014095E8070078
:1014F000FFF702FA0500DAD10220C4F82480CDE912
:10150000000700234046DDE91812FFF755FAA062F4
:1015100068B10120E662CDE9000700233046DDE92D
:101520001B12FFF749FA206308B12846BFE7FFE71F
:101530005846BCE7DF62000815670008431600083C
:101540002DE9F04190F9005000260F4604462DB1D8
:101550000021E068904203D9801A02E00121F8E7F7
:101560000020E06031B9A16869B118B194F90100B7
:10157000A84208D0206B4571D4E90B01FFF7E6F9CA
:1015800065B1A068E0606570A078F0B1802815D0E2
:101590000BDC01280ED0022815D10DE0A088C00573
:1015A00001D50525EFE77F25EDE7812808D08228C2
:1015B00009D107E0052506E0042504E07F2502E0C7
:1015C000022600E001260020A070A088C00410D5EB
:1015D000206A122101F077FC48B9206A1B2101F032
:1015E00072FC20B9206A1C2101F06DFC08B10121B8
:1015F00000E00021A08882040AD5226A32B1D268B4
:1016000022B11278024203D0012202E00022F9E75F
:101610000022052D08D151EA020305D0400401D56E
:10162000042508E07F2506E0000404D57F2D02D1C3
:1016300009B902B90525257007B13D703046BDE8EE
:10164000F0810A794B798979022A04D111B1C278E3
:101650008A4200D18370704730B50B79491D90F8EC
:101660006021846804B3047B9C421ED803D1012A04
:1016700003D10B2201E002B90D22D0F8684100230A
:101680002CB1D0F8644114B1E46804B101230D68B1
:1016900000EBC30400EB8303C4F850514968C4F85D
:1016A00054110121C3F8481101E002B90C2280F85D
:1016B000602130BD2DE9FF4F87B0154604008B46F1
:1016C000DDF85CA0DDF85080199F2ED0BBF1000F33
:1016D0002BD055B3159840B3169830B35FEA0A0083
:1016E00023D04FF4BA712046FEF764FE03A8594692
:1016F000C4E9005A169A0025CDE90070012320465E
:10170000039505F0C8FA002811D10123049015981B
:1017100004AA194604F0A6FD012558B1F7B315989F
:1017200004F0F7FC05EB00204BE04FF0FF300BB06E
:10173000BDE8F08F0498A946294615EBE076C0F382
:101740000A0502D0607B28B125B1039880B1012839
:1017500006D104E0039800260028F8D103910498EC
:101760001A220090012120684FF4024301F0D0FAC0
:101770005EB325B128F07F00A84200D14546334A28
:101780000020009040F2FF735046CDE901421899C5
:101790002A46FFF7B1F80028C9D100E012E0A660A0
:1017A000FE208DF8140001231598022105AA04F0EB
:1017B0006BFD60B137B1159804F0ABFC022101EB71
:1017C000002038606FF00B00B1E70025D7E70A98DA
:1017D000C4F864019DF81400F02801D8012000E04D
:1017E0000020C4F868010020ADF818001598012306
:1017F000052106AA04F030FDBDF818004FF47A71F7
:101800004843C4F86C01C4E9469B1898A4F8200129
:10181000A4F82281A4F824510D490F48C4F82841A6
:10182000C4F82C110B49C4F8301104F59471C4E9C3
:101830004E400A48C4F84001159804F02FFC169851
:1018400004F59C7104F02AFC002070E7591600088A
:10185000E36300081D690008DF620008E56B00080B
:101860002DE9FF4F04464FF0000B87B0A168149894
:1018700000297DD0002B7BD018B9D4F8680100284E
:1018800077D194F860010A2818D90B2801D00125D6
:1018900000E000250C280BD048F22023207B00908C
:1018A00004222068294601F033FA25B1012003E023
:1018B00048F21023F2E7002084F860010020029033
:1018C000D4F8680130B1D4F8640118B1C06808B91F
:1018D0000120029000200490029804EB8000039005
:1018E0003BE00120049002980025039904EBC0001E
:1018F00000F5A87AC1F848B12BE0C5EBC50104EBAF
:10190000810707F11C06D7F8188097F81C9010374C
:10191000B8F1080F01D94FF008084946C8450AD95F
:101920000A4651466846CDF800B0CDF804B0FEF73F
:101930001AFD694600E05146C6F800B0D7F818C055
:1019400005AB42463846E0476D1CC6F80090CA44D5
:10195000EDB2607BA842D0D80398D0F848010028A7
:10196000BFD1D4F86C01002825D00499002901E0EA
:1019700024E020E0D4F870110AD0814206D9002377
:10198000009120681722194601F0C2F901201AE0DF
:10199000002910D081420ED2089A11442246814279
:1019A000C4F8701107D9009101211068172248F27C
:1019B000502301F0ADF90BB0BDE8F08FC4F848B189
:1019C0005846C4F84CB1C4F87001F4E710B50A7970
:1019D000491D0446082A0BD10878802809D0A06B3D
:1019E000002805D104F13C00FEF7BDFC0120A063F6
:1019F00010BD0020207510BD2DE9F05F734F04006D
:101A00004FF001064FF00005DDF8288014D0A069E2
:101A100090B194F82C0098B1E06E00234FF00109CA
:101A2000A0B394F8700080280CD09AB15FEA080047
:101A30000ED0D8F8005026E06FF001063D469DE03C
:101A400000269BE0656F84F82C306FF0090621E0DA
:101A50003D4618E094F82C105D4A122901D1602807
:101A600001D015460FE094F87200A28B010294F8A1
:101A70007100084394F87310824202D1A07F88421B
:101A800005D0524D2D1F84F82C9003E008E084F817
:101A90002C30002600216363012EE3660AD06DE03E
:101AA00042B15FEA080002D0D8F8005000E03D469D
:101AB00084F82C90D4E90C20904201D20844606351
:101AC000904203D3424D84F82C906D1E2069016929
:101AD00009B1042652E0C0F805309A46C0F8093032
:101AE00094F82C006FF0080B112843D121692020B5
:101AF00048712169207F8871A08B010A2069C1711A
:101B00002169A07F0872D4E91001471A01D5E06B62
:101B10000744606A08B9042F02D9401E032839D847
:101B20002169487940F0020048711FB1616A69B1CA
:101B3000B94204D084F82CA0264D5E461EE02169EF
:101B4000C7F1040309EB83021043487100232169A4
:101B500004F138003A46093101F038F9C4F834A0EC
:101B6000C4F82090A7622169A068FEF7EFFE12205A
:101B700084F82C0094F82C0001280FD00B9808B1A1
:101B8000A16A0160B8F1000F01D0C8F800503046DA
:101B9000BDE8F09F84F82CA00F4DCEE7216980208E
:101BA00048712169207F88712169A08B000AC87162
:101BB0002169A07F08722069C0F809502169A068D6
:101BC000FEF7C4FE84F82CA0B7E700004700040627
:101BD00001000405100007060000010630B40400EF
:101BE0004FF0000007D0002905D004F1380030BCC8
:101BF000002301F017B930BC704770B50400049899
:101C000016D0A569A5B1A18300254FF47A71A277FA
:101C10004843C4E909352562C4E90C0504F13800DC
:101C200001F0FAF8112084F82C000020E56670BD60
:101C30006FF0010070BD2DE9FF5F040091464FF089
:101C4000FF3BDDE91185DDE90FA60E9F56D0B9F106
:101C5000000F104652D004F060FAB0F5945F4DD3F7
:101C6000484604F05AFAB0F5985F47D2E7B3DEB3BE
:101C700027602122A4F804A004F14801A66004F121
:101C80003800A4F80C8001F096F8012348460021A2
:101C900003AA04F0FFFA0123804602AA1946484627
:101CA00004F0E6FA012307460221484601AA04F09F
:101CB000DFFA0123064603216A46484604F0EAFAA1
:101CC000B8F1000F06D19DF80C10032902D10FB90D
:101CD00006B950B11DB1484604F01FFA28606FF0F4
:101CE0000B0004B0BDE8F09F08E09DF800302046EE
:101CF000DDE9012100F018F80028F2D05846F0E79D
:101D00000A7990F82C30491D002B0CD0082A0AD1F2
:101D1000C26E12B10A78802A05D10A680267496842
:101D200041670121C16670472DE9FE4304006FF051
:101D3000010809D0002784F82C70E7660029237574
:101D400005DBC1F30A0503E04046BDE8FE8300253C
:101D5000002A02DBC2F30A0200E000221DB112B128
:101D60000120A06102E00025A7612A460D480097E6
:101D700040F2FF73CDE90140A1882068FEF7BCFD69
:101D800006462A460820CDE90007A1890023A0685D
:101D9000FEF712FE206116B908B10020D5E7A76151
:101DA000D2E70000011D00082DE9FF5F040017467F
:101DB0004FF0FF32DDE90E09DDF844B0DDF84CA04C
:101DC0007ED000297CD05FEA090579D05FEA0B0557
:101DD00076D0A1604FF47A71237348436067002086
:101DE00020750121581E03F5C06603F5B0630FB3DB
:101DF000B7F80080B8F5905F21D06FF49050404460
:101E00007E286ED8002138460123009301AA04F0F1
:101E100047FA0123054602AA1946384604F02EFA6D
:101E2000012306460221384603AA04F027FA014698
:101E3000F5B915E07F2854D21D46216138E07F288E
:101E40004FD21D463246012338462161194604F01F
:101E500006FB01232A460221384604F000FB27E056
:101E60009DF80400022801D0032801D106B949B128
:101E7000BAF1000F01D0CAF800806FF00B0004B077
:101E8000BDE8F09F0298002802DBC0F30A0600E0DC
:101E900000260398002802DBC0F30A0500E00025B5
:101EA0001148C4E915401148E06504F15400B860D8
:101EB0000020C4F84490A0631099A4F8481000E0F2
:101EC0000FE01299A4F84A104946E064C4F800B043
:101ED00020652046CDE90065129B109A00F008F8B5
:101EE000CDE71046CBE70000DF620008ED67000891
:101EF0002DE9FE4304468C4616469846DDE90A1055
:101F0000E26C8A4205D1226D824202D10020BDE8F6
:101F1000FE830029C4E9131001DB8AB200E000222D
:101F2000002801DB85B200E0002500271AB115B1B9
:101F30000120206102E00022276115460D4800972C
:101F400040F2FF733146CDE901406046FEF7D4FC14
:101F500006462A4608204146CDE9000720680023AE
:101F6000FEF72AFD606010B94FF0FF36276130465A
:101F7000CDE70000CD1900082DE9F04F040085B031
:101F80000CD04FF00009CDF80090A06B012500B1F6
:101F90000120236943B1267D2EB105E06FF00100D9
:101FA00005B0BDE8F08F80B189B183B1DFF874B4BA
:101FB0000126002804F17C0A71D0217D04F118006B
:101FC000DFF86484039039B16CE0002546E284F8C0
:101FD0001490C4F83890F8E794F83C0000270221E8
:101FE000B1EB101F01D1112006E0402802D0CDF83E
:101FF00000802DE0012721202075B4F83D10A18636
:1020000094F83F0084F83600A06804F04DF894F886
:1020100036100023039A04F0AFF810B104F0A0F8D2
:1020200008E094F82800810703D067B1C00707D003
:1020300003E0FE480090267587B3009850B131E068
:10204000FA48401C1FE080072CD4F848801C1AE096
:10205000267527E0C4F8A0900023C4F8A4900722B6
:10206000C4F8689069462046C4F8709006F06AFA91
:10207000A0B1206F60B1206A606630B1D4F8A010C2
:1020800088420FD0EA480090E2E7D4F8A00008E0C8
:1020900094F82800000603D4206A02E002E0C8E0B9
:1020A00000206066207D00285DD0207D01285AD068
:1020B000207D112807D0DF4A132872D021286ED046
:1020C00023286DD1A7E094F83C0081074CD5D4F8C3
:1020D00020800427C10704D0C0F38100C0F10407A9
:1020E00004E0A8F10100032800D24746CDF804908F
:1020F00004F140013A4601A8CDF80890FEF733F903
:1021000094F8280000060BD5B8F1000F01D0474520
:1021100009D2A8EB0700012800D00220074408E0FC
:10212000B8F1000F05D0474504D02DD9584600908E
:1021300079E02762EFF31080CDF8109021684863B2
:1021400072B604ABD4F830C001A903983A46E04710
:102150002168496B81F3108810B104F001F8E6E7BB
:102160001220207526675FE0C00710D0216C206A1E
:10217000616670B1814202D9CDF800B053E008D257
:1021800094F82800000604D4A648401CCFE7C4F801
:10219000649012202075C4F8709045E001E038E0AA
:1021A0003FE094F83C0041093BD100F00101216778
:1021B00094F86C3000F010018B4201D0009232E0B4
:1021C000C0F34200D4F8A010C0F1070701EB0A00E9
:1021D0003A4604F13D01FEF7C6F8D4F8A0003844B1
:1021E000C4F8A000A16E3944A166226A0AB19142E6
:1021F000C2D8216F19B9C0F12000092806D20023E6
:1022000069461A46204606F00FFA68B11420207578
:102210000AE02220FBE794F83C0000F0EF0160297F
:1022200018D0CDF8008026750022C4F87890C4F844
:102230003890D4E91D10884201D21044A06788422A
:1022400003D37948401E009026756068016949B142
:10225000042503E194F86C1000F010008142ADD128
:102260002420D4E7C0F80590C846C0F80990207D26
:102270001327122808D0142826D022284FF023092B
:102280003DD024283AD16DE061686020464648710F
:10229000616894F8340088716168A08E000AC87182
:1022A000616894F836000872C4F87880D4E90001B7
:1022B000FEF74CFB206FE0B984F86C60A666C4F8AA
:1022C000A060C4F8A46018E0616894F86C0040F065
:1022D0002000487194F86C0068B1002084F86C000C
:1022E000C4F878804646D4E90001FEF72FFB206F42
:1022F00018B1267569E61020F0E7277585E0606E55
:10230000411E032910D8C0F10400432141EA800096
:102310006168487151466068626E0930FEF723F8C3
:1023200084F81480002510E030B1626841215171B9
:102330006168C1F8090002E061684020487184F8D2
:102340006C80C4F8788084F81490616894F8340044
:1023500088716168A08E000AC871616894F83600BF
:1023600008724DE0002369460722204606F0EAF88D
:1023700080B3616894F86C00487194F86C0038B3CD
:10238000002084F86C00D4E92801471A072F22D3D3
:10239000206F00B11FD0C4F8788084F8149007270C
:1023A000D4F8A4103A4660685144801DFDF7DBFF65
:1023B000D4F8A4003844C4F8A400A06EC119A166E2
:1023C000606EE8B1814212D9CDF800B026751BE0ED
:1023D0001020D6E719E06068C7F1070246EA42021A
:1023E00041791143417184F814800025D8E73DB943
:1023F000814205D20B48401C00900125267504E05F
:10240000D4E90001FEF7A2FA45B3207D012825D1C9
:102410006268802100985171626894F8341091715B
:10242000A18E09E012000706010004050000010664
:1024300047000406000003056268090AD17162685A
:1024400094F8361011726168C1F80900D4E90001EE
:10245000FEF77CFA84F814806FF0090528469FE5A2
:102460002DE9FF4F85B0164604008946DDE9137A51
:10247000DDF85880189D7CD0B9F1000F79D0002E7E
:1024800077D00898002874D05FEA080071D05FEA1E
:102490000A006ED060212046FDF78CFF802004905A
:1024A0000123304600210093042304AA03F0F8FE20
:1024B00010B185B330462BE042480023DFF800B16D
:1024C000042264631946C4E90EB004F13400B0601C
:1024D000089803F02AFEE061C0B10023129804229C
:1024E000194603F022FE2062129901B1A0B1002624
:1024F0008DF80C6047B3002138460123009303AAEE
:1025000003F0CEFE80B135B1384601E01DB1089828
:1025100003F007FE286002E00DB10846F8E76FF00F
:102520000B0009B0BDE8F08F9DF80C00012841D0E8
:10253000F02802D9F0208DF80C0023482465C4E966
:1025400015B004F15000B8609DF80C006074C4F838
:1025500000900498C0F380716162C0F30A02A4F88D
:102560004420C4F82CA015982086C4F848801798F9
:1025700000E021E0A4F84C0040F2FF7313480096FD
:10258000CDE9014015995046FEF7B6F90028C8D1AB
:102590009DF80C0000B101201799CDE900060498C0
:1025A0000023C0F30A024046FEF706FAA06218B103
:1025B0000020B6E70220BEE74FF0FF30B1E7000091
:1025C000DF6200084165000863670008FF26000815
:1025D0002DE9F84300271E4600290446B84675D069
:1025E000A1698818814200D2A061606820B1C4F856
:1025F00018800127C4F80480E06908B1056800E08C
:1026000000254FF0010915B3606A18B3A069A8420C
:1026100016D3A07C0127401CC0B2A074617C884204
:1026200001D984F81290C4F81880E06880B10020C5
:10263000E060A06AA17C4171A16AA06CFEF786F9F6
:102640002EB1A0693168281A814220D930601EE07D
:102650000120EDE7207C012819D105EB5500A842A7
:1026600001D24FF0FF30A16981420AD900911822AE
:10267000206801214FF4014300F04AFB022020743E
:1026800005E026B1401A3168814200D91860206AFD
:1026900050B1006840B1A169814205D9606900B9B3
:1026A0000227C4F8149001E0C4F81480207A48B1DD
:1026B000009019222068012148F2402300F028FBF5
:1026C00084F80880012F0AD016E0FFE7C4F80480E0
:1026D00084F8088084F81280C4F818800CE0207C0C
:1026E000022807D10023CDF800802068182219465F
:1026F00000F00EFB84F810903846BDE8F8830A79A4
:10270000437C2BB1012A07D042F08001017270474F
:1027100022B142F04001F9E749798174C16821B1E1
:102720000021C1600121416070470121F9E70000EB
:102730002DE9FF5F04009A4691460D46DDE90E6BD8
:10274000109F4FF0FF384AD0F5B3B9F1000F46D0D3
:10275000D6B33C212046FDF72DFE0123284600215B
:102760000093042303AA03F09BFD38B10FB128881E
:1027700038606FF00B0004B0BDE8F09F1948C4E961
:102780000B401948606304F12C00A8604FF000056D
:102790000398A561C10FC0F30A07C0F38070C4E9B4
:1027A00004100CD0114840F2FF7300953A46514690
:1027B000CDE901404846FEF79FF80028DBD106200E
:1027C0003A460023594600E009E06662CDE900057B
:1027D0003046FEF7F1F8A06208B10020CBE7404692
:1027E000C9E70000DF62000835660008C12800085C
:1027F0002DE9F8434FF0000516460F000446A846A1
:1028000018D02069B0B1A069B0B1204600F04AFBF1
:10281000211D054602226846FDF7A5FDBDF8000012
:1028200025F07041A1600125A081A4F80E80C4F8B4
:10283000188001E0C4F818800020BDB9B6B1E08965
:102840004FF47A728119B1FBF2F3B1FBF2F002FBA3
:102850001311E181A168194A0144A160914205D395
:1028600052421144A160A189491CA1811FB3616931
:1028700009B3E269FAB1216A914217D3881A20623A
:10288000A06A0422A689A168401D00916946FDF74F
:102890006AFDA06A02226946ADF800600930FDF7C2
:1028A00062FDD4E90901FEF751F801E00844206215
:1028B0002846BDE8F883E069F9E70000005C2605DA
:1028C0000A79491D062A05D10A6802608988818033
:1028D00001218161704700002DE9FF4F87B0164646
:1028E00004008A46DDF85C90149F199D7ED0BAF1F1
:1028F000000FFBD0002EF9D015980028F6D01698BE
:102900000028F3D05FEA0900F0D04FF4B6712046FA
:10291000FDF750FD04A84FF0000BC4E90069169ABA
:102920005B46CDE9005051462046CDF810B004F08A
:10293000B2F9002832D11598FE2601238DF81460D3
:10294000022105AA03F0A0FC38B12DB3159803F0BD
:10295000E0FB022101EB00201DE09DF81400F1389E
:102960000D2801D28DF814604FF001089DF8141065
:1029700006AA84F84C114346C4F850814146CDF86C
:1029800018B0159803F06EFC58B12DB1159803F0EE
:10299000C0FB08EB002028606FF00B000BB0BDE817
:1029A000F08F069818EBE076C0F30A0502D0607B42
:1029B00028B125B1049888B1012807D105E0049811
:1029C00000260028F8D1CDF8108006981A22009031
:1029D000012120684FF4024300F09AF96EB125B14D
:1029E00027F07F00A84200D13D4600E051E094F876
:1029F0004C01F02803D8012002E00025F5E7002073
:102A0000217B00232A46CDE9001018994846FDF79E
:102A1000D3FFC4F84801E0B3A66001231598032151
:102A200002AA5E46ADF808B0ADF80CB003F014FC95
:102A300015980123052103AA03F00EFCBDF8080038
:102A40006421012304F5AC724843C4F85C014FF4DF
:102A50007A71BDF80C004843C4F86001062184F87F
:102A60005861159803F010FC0A98FF21C4F854012E
:102A700084F85911C4F81CA1C4F818611898A4F876
:102A80002001A4F82271A4F824510F49C4F8284168
:102A900000E016E00E48C4F82C110C49C4F83011BF
:102AA00004F59471C4E94E400A48C4F840011598F1
:102AB00003F0F4FA169804F59C7103F0EFFA002085
:102AC0006CE74FF0FF3069E7E3630008696A0008CC
:102AD000DF620008E56B0008F0B482680125049EFF
:102AE000A2B39BB390F84C310BB1FE2B39D3D0F885
:102AF00060214AB1D0F868218A4201D9521A00E017
:102B00000022C0F8682192B1D0F85021B2B9477BB9
:102B1000002211E000EB8204D4F8F04054B100EB45
:102B2000020C24789CF810C114EA0C0F02D1C0F8F2
:102B3000505103E0521CD2B29742EBD8FE2B10D377
:102B4000D0F864218A4202D9511A01E03BE0002109
:102B5000C0F86411D0F85021002A00D089B1F0BC2F
:102B60007047D0F854110029F9D0002EF7D023B1C6
:102B700090F85921FF2A07D013E0D0F8501100290E
:102B8000EDD0F0BC00F02AB84A7C32B190F8582160
:102B90001AB1FE2280F859210FE005EB530280F8AC
:102BA0005921D2B2FE2A08D0521E12F0FF0180F83D
:102BB0005911D4D180F85931E3E7897C90F8582134
:102BC0009142F7D0CBE70021C0F86811C0F850510E
:102BD000C0F86411FF2180F85911C0E72DE9FE4FBC
:102BE0000546D0F8480100F1050995F84C0108B1F7
:102BF000FE2801D3012000E0002000248346A246E5
:102C000035E0C4EBC40105EB8106B76996F81C807A
:102C10001036082F00D90827474505D96946CDF851
:102C200000A0CDF804A000E04946C6F80CA0D6F8F4
:102C300014C002AB30463A46E0474745C6F80C8020
:102C400004D9424669464846FDF78DFB05EB8400F2
:102C5000D0F8F00040B1BBF1000F05D02A1901787F
:102C600092F8102111430170641CC144E4B2687BE6
:102C7000A042C6D8C5F850A1D5F86011C5F86811B2
:102C8000D5F85C11C5F86411D5F84811686803B02F
:102C9000BDE8F04FFDF75ABE10B5040037D06068AC
:102CA000FDF752FCE06805F0D7FAA06805F0D4FA09
:102CB000606805F0D1FA206C05F0CEFAE06B05F003
:102CC000CBFAA06B05F0C8FA606B05F0C5FA206B73
:102CD00005F0C2FAE06A05F0BFFAA06A05F0BCFA96
:102CE000606A05F0B9FAE06905F0B6FA206A05F005
:102CF000B3FAA06905F0B0FA606905F0ADFA206991
:102D000005F0AAFA2046BDE8104005F0A5BA10BDAE
:102D1000F0B50028059E4DD0012702F00705D40824
:102D200007FA05F50A2CEDB204D305241646012551
:102D30004FF4C243044494F800C00CEA050C19B1E6
:102D4000BCF1000F36D103E0BCF1000F32D00023FC
:102D500043EA026CEFF3108243691A6372B60029EA
:102D6000217801D0294300E0A9432170027F022A83
:102D70001CD3437F591CC9B28A4200D80021827FEC
:102D80008A4201D1C77711E08269042442F833C036
:102D9000826904EBC303D6504177027F90F820107C
:102DA000521E914202DA491C80F820104069006BE3
:102DB00080F31088F0BD002807D0002905D0022A32
:102DC00003D30023C36080E80E007047F0B50026EF
:102DD00003B11E6020B119B1D0E90243A34201D171
:102DE0000020F0BD04682344144611E0D0E9027CC1
:102DF0001D78BC450ED001F8015BC5686D1CC5602F
:102E00004768BD4202D1C660036800E05B1C641ED7
:102E1000002CEBD1101BF0BD002802D00021C160B6
:102E200081607047F0B5C8B10368BBB1B1B18468C7
:102E30001C44131E1BD00027D0E902566D1CAE4265
:102E400015D0D0F804C0AC4500D186B10E782670FC
:102E50004668AE4204D18760046805E00020F0BDFA
:102E600085686D1C8560641C491C5B1EE4D1D01A0A
:102E7000F0BD08B5022201466846FDF774FABDF8B8
:102E8000000008BD08B5042201466846FDF76BFA4C
:102E9000009808BD08B5042201466846FDF763FAAC
:102EA000009808BD08B5042201466846FDF75BFAA4
:102EB000009808BD08B5012201466846FDF753FA9F
:102EC0009DF8000008BDCA0801F0070301219940E0
:102ED000C9B220B10A2A02D2805C084000D0012089
:102EE0007047CA0801F0070301219940C9B220B117
:102EF0000A2A02D2805C084000D0012070472DE9E8
:102F0000F04100260F46442135460120FDF764FAC2
:102F100004007AD0442534210120FDF75DFA002811
:102F2000206172D078254FF0090830210120FDF78B
:102F300053FA002860617CD0A82540461021FDF797
:102F40004BFA0028A06174D0502101204FF49C75E9
:102F5000FDF742FA0028E0616BD0112008214FF400
:102F6000C475FDF739FA0028206262D0A82101203B
:102F70004FF40475FDF730FA0028606259D07821CB
:102F800001204FF42E75FDF727FAA062E8B33C212B
:102F900001204FF44C75FDF71FFAE062A8B36021E1
:102FA00001204FF45B75FDF717FA206368B3042026
:102FB0004FF473754FF4BA71FDF70EFA606320B3E6
:102FC000042040F69C154FF4B671FDF705FAA06396
:102FD000D8B10C2140F64C750120FDF7FDF9E063F6
:102FE00098B1742140F658750120FDF7F5F9206479
:102FF00058B1382140F6CC750120FDF7EDF960603D
:1030000018B10C2141F2040500E012E01320FDF795
:10301000E3F9A06068B1182141F2E8050C20FDF742
:10302000DBF9E06028B1012041F208252646206046
:1030300002E02046FFF730FE07B13D603046BDE8B4
:10304000F0812DE9FF4F89B0044600694FF0000878
:10305000FEF7E6F97F288DF8200016D0052814D059
:10306000002083466068FDF7CBFA206CFEF78CF8F1
:1030700008B14FF00108D4E900500027468A206CBF
:1030800030B1007C012802D002E00120E9E70127ED
:10309000E06928B1C16819B1097809B1012100E0DE
:1030A000002189460DB1002009E01B21FFF719FF1F
:1030B00020B9E0691C21FFF714FF00B1012082460E
:1030C0000DB1002003E0E0691821FFF70AFF0C9919
:1030D0000022CDE904A9CDE9062140F203313140B7
:1030E00000D00121C6F38003CDE90220CDE90031F3
:1030F0000DB1002201E09DF920203B46E06B0B99C9
:10310000FDF706FF206818B140460DB0BDE8F08F0E
:10311000DDE90B23E0695946FDF7FCFCDDE90B23F3
:10312000206908A9FEF70CFA06469DF920007F28C1
:1031300020D005281ED000270025616ADDE90B2379
:10314000C5EBC50000EB400001EBC0003946FEF7BF
:1031500013FF6D1C15F0FF05EFD0DDE90B2360694F
:103160003946FDF745FEE06A39460B9AFFF740FB0A
:103170003046CAE70127DFE72DE9F8430546006836
:103180009846914600280E4617D12869FEF748F95F
:10319000052814D0002700240096696B3B46C4EB39
:1031A0004410424600EB400001EB80004946FEF728
:1031B00057FB641C24B2042CEEDBBDE8F883012726
:1031C000E9E72DE9F04104460068002516460F4660
:1031D000C8B92069FEF724F97F280DD005280BD047
:1031E0000021206B33463A46FFF7F2F958B1012827
:1031F00004D0022807D103E00121F2E7012502E013
:103200006068FDF755F92846BDE8F0812DE9F843DF
:10321000054600689846914600280E4615D1286953
:10322000FEF7FEF8052812D00027002400965B2048
:10323000A96B3B464246604301EB80004946FFF7DD
:103240004BFC641C24B2042CF0DBBDE8F88301279E
:10325000EBE7704772B6FEE7014800F07FBA000066
:1032600048040024014800F079BA00004804002412
:1032700030B50368426B53F8844F4FF6FC718C43B2
:1032800044EA82041C60036853F8844F058F24F4D9
:103290007F0444EA05441C60836B1A440368D3F836
:1032A00088408C4344EA8204C3F88840036853F89A
:1032B000884F858F24F4FE0444EA05441C60C36BE8
:1032C00002EB43020368D3F8A0408C4344EA820433
:1032D000C3F8A040036853F8A04FB0F8405024F45E
:1032E000FE0444EA05441C60D0E9103403FB0422C8
:1032F0000368D3F8B0408C4344EA8204C3F8B0407A
:10330000036853F8B04FB0F8485024F4FE0444EA80
:1033100005441C60D0E9123403FB04220368D3F88F
:10332000AC408C4344EA8204C3F8AC40D0E9143486
:1033300003FB04220368D3F8F0408C4344EA820480
:10334000C3F8F040036853F8F04FB0F8585024F435
:103350007C1444EA05441C60836D02EB430302685D
:10336000D2F8C0408C4344EA8301C2F8C01001681F
:1033700051F8C02FB0F85C3022F47C1242EA0342CC
:103380000A60016851F8C02F90F8603022F07C523A
:1033900042EA03620A60416B234A02EB8101C16683
:1033A000826B01EB82020267C36B02EBC3024267CE
:1033B000D0E91034634302EB83028267D0E9123410
:1033C000634302EB8302C267D0E91434634302EB28
:1033D0008302C0F88020836D02EBC302C0F8842012
:1033E000C46D836E5C4302EB8402C0F88820046ED7
:1033F0005C430E4B02EB8402C0F890209A420AD93B
:10340000D0F89C1041F02001C0F89C10032180F8F6
:103410009810012030BD002200E004C1D0F89030A7
:103420008B42FAD8002030BD00AC0040FCD30040F5
:10343000F0B5D1E901650C692C430D68CEB145F0BA
:1034400080452C4391F82070D1E9066535434E69DB
:1034500046EA076635438E8945EA0645D0F884601A
:10346000806E584306EB80030020E3E80245094CD8
:103470000AE044EA8544E5E71618155C001DD6F815
:10348000016045EA062520C3CD68655D8542F3D815
:10349000F0BD0000C887000870B5044600F0CEFDFE
:1034A0000546601C02D004480078044400F0C6FDC4
:1034B000401BA042FAD370BD0000002410B590F864
:1034C0009830012B09D0022B07D0D0F89C1041F086
:1034D0000201C0F89C10012010BD03689C6D0C42D5
:1034E00003D1DC6D44F0010404E09C6D31EA040476
:1034F0001ED00324DC658B0505D50368D3F8E040B6
:103500001443C3F8E0404B0505D50368D3F8E44005
:103510001443C3F8E4400068426D074B0B401A4364
:1035200042650648026842EA91710160002010BDC0
:10353000DC6D44F00204DDE7FFFFCF3F14A800403C
:1035400070B5044690F89800022804D0D4F89C0086
:1035500040F008000DE02068D0F8C03013F07C5F28
:103560000BD0D0F8C4309B020CD5D4F89C0040F4AA
:103570000070C4F89C00012070BDD4F89C0040F09D
:103580002000F6E7D0F8C400C0F3044520462B46DF
:10359000FFF74EFF21680120A840C1F8D000C4F811
:1035A0009400002070BD704730B590F89850039C8F
:1035B000012D07D0D0F89C1041F00401C0F89C10F8
:1035C000012030BD0068090141EA820141EA43015E
:1035D0002143C0F88010002030BD704770470000C4
:1035E000F0B590F898500024022D04D0D0F89C102B
:1035F00041F008012CE0402905D041292CD0056D6F
:103600008D421CD945E00568D5F8A06016F4FE0F80
:1036100015D0D5F8A460760616D0D5F8A460F601CA
:1036200005D5D5F8A06016F0004F00D50124D5F8D7
:10363000A450466FC5F305252C44456C27E0D0F80F
:103640009C1041F0200103E0D0F89C1041F48071FF
:10365000C0F89C100120F0BD0568D5F8B06016F4E4
:10366000FE0FECD0D5F8B4607606EDD0D5F8B46096
:10367000F60105D5D5F8B06016F0004F00D501244D
:10368000D5F8B450866FC5F305252C44C56C654349
:1036900002E0456DC66F4D4306EB8506356815F0B3
:1036A00080455560356824D025F060451560356843
:1036B000254F05F000559560356805F0004515610A
:1036C000B588ADB2D5617568C5F30345D560756839
:1036D00005F480155561756805F4001595617568E8
:1036E000C5F3066515627568ED0F5562002508364D
:1036F00007E0C5F38A45D9E716F805C003F805C009
:103700006D1CD2F80CC017F80CC0AC45F4D8402999
:1037100009D041290BD0012220290CD200688A400F
:10372000C0F898200DE00068C0F8A84009E00068E3
:10373000C0F8B84005E0006801F01F018A40C0F8F9
:103740009C200020F0BD0000C88700080068D0F869
:10375000C40000F03F007047704700002DE9FE4FA5
:10376000B34F044638688007391D096800EA817B39
:103770002068016D426D01F470410A400292016DB2
:10378000426D01F00F0102EA010A016D426D01F084
:10379000F0010A400192016D426D01F0715102EA9F
:1037A0000108016D426D01F060710A400092416DA7
:1037B000056D4FF00009CE43F10509D4E943C90571
:1037C00006D4B9150165C7F800902046FFF7C4FF7D
:1037D000700510D4E84340050DD42068D0F8DC20F3
:1037E000D0F8E41011404FF480620265C7F80090F1
:1037F000204600F005FBBBF1000F0BD08D490BEA12
:103800000100216808654FEA9B70386059462046E0
:10381000FFF7C9FE029850B1864908402168086543
:103820000298800F38600299204600F019FBBAF127
:10383000000F0BD07F490AEA0100216808654FEAB2
:103840009A7038605146204600F06FFA019850B1E6
:1038500078490840216808650198800F386001990F
:10386000204600F069FA30050BD4E843000508D47F
:1038700021684FF400600865C7F80090204600F00A
:10388000F0FAB00510D4E84380050DD42068D0F8D4
:10389000D820D0F8E01011404FF400720265C7F84C
:1038A0000090204600F0AEFA30030BD4E84300034A
:1038B00008D421684FF400200865C7F8009020461E
:1038C00000F032FAF0030BD4E843C00308D42168B7
:1038D0004FF480300865C7F80090204600F08FFA5A
:1038E00070030BD4E843400308D421684FF48020D0
:1038F0000865C7F80090204600F080FAB0030ED4A7
:10390000E84380030BD421684FF400300865C7F802
:103910000090D4F89C0040F08000C4F89C0000980F
:1039200050B144490840216808650098800F38600C
:1039300000992046FFF752FEB8F1000F0DD03D4927
:1039400008EA0100216808654FEA98703860D4F8E9
:103950009C0040EA0800C4F89C003749206888426F
:103960005CD160688168890758D0016A01F00F0254
:10397000416A1140026A476A02F0300207EA020710
:10398000026A436A02F4C07203EA0208026A456AE4
:1039900002F4FC4205EA0205026A466A02F4F022D9
:1039A000D0F8249006EA0206D0F820A003D00162E5
:1039B000204600F020FA2FB16068076239462046A1
:1039C00000F01BFA6FEA090040060ED46FEA0A0005
:1039D00040060AD46068C16BC26B090C40230362C5
:1039E00002F03F02204600F007FAB8F1000005D0CF
:1039F000616808624146204600F0FCF935B1606814
:103A00000562D4F89C002843C4F89C0036B1606875
:103A10000662D4F89C003043C4F89C00D4F89C00A3
:103A2000002802D02046FFF7D8FDBDE8FE8F000039
:103A300010A80040FFFFCF3F00A000402DE9F0415B
:103A400094B08D494C2204466846FCF78CFC64B166
:103A50008A4E2068B04202D100F58070606094F810
:103A600098004FF0000820B108E0012014B0BDE834
:103A7000F081204684F8998000F002F9206881697D
:103A800021F01001816100F0D9FA0327054604E016
:103A900000F0D4FA401B0A2811D82068806900077A
:103AA000F6D42068816941F00101816100F0C6FA15
:103AB00005460DE000F0C2FA401B0A2808D9D4F8E8
:103AC0009C0040F00100C4F89C0084F89870CCE79A
:103AD00020688069C007EDD02068816941F002014B
:103AE0008161207C01282068816937D041F0400144
:103AF0008161607C01282068816932D021F4804195
:103B00008161A07C0128206881692DD041F4805119
:103B1000816120688169A26821F44071114381614B
:103B20002068816921F0A40181612068016921F088
:103B300010010161E068012819D010B302281BD0E0
:103B40002068816941F0800181612068016941F04C
:103B500010010161E06803280ED012E021F040015D
:103B6000C6E741F48041CBE721F48051D0E72068DB
:103B7000816941F0040103E02068816941F020017E
:103B80008161207E6FF0FF02E169A38A400602EBAB
:103B90000121A0F100700843216A491E0843110267
:103BA00001EB034318432368D861A068B0F5407F58
:103BB00010D1D4E90A03401E02EB03221043226B0A
:103BC0000B1303EB02121043A28C01EB02410843DA
:103BD0002168C860206E30B12068D0F8C010626ED5
:103BE0001143C0F8C010D4E91701C842694609D092
:103BF000206850F8C82FA36E22F0070251F8233036
:103C00001A430260206C48B1206850F8BC2F636CE6
:103C100022F0070251F823301A430260A06C50B121
:103C2000206850F8BC2FE36C22F0700251F823306A
:103C300042EA03120260206D50B1206850F8BC2F98
:103C4000636D22F4E06251F8231042EA0121016021
:103C50002068B04204D16068816821F0030181606E
:103C6000C4F89480C4F89C80012084F89800204611
:103C7000FFF7FEFAFAE60000D887000800A000402F
:103C800010B5B4B0044614212EA8FCF793FBB8215C
:103C90006846FCF78FFB2149206888423CD100210F
:103CA0004FF40040CDE9000140031B90684600F04E
:103CB000F7FB08B1FFF7CEFA1948016841F48071AB
:103CC0000160006800F48070339015480C3801687A
:103CD00041F00801016000682EA900F0080033904F
:103CE00003202E9002202F90002030903190092048
:103CF00032900C4800F0B6F800221320114600F074
:103D000015FA132000F004FA00221520114600F0E5
:103D10000DFA152000F0FCF934B010BD00A00040F1
:103D2000EC440258000C02587047CA0703D00A46F8
:103D3000402104F06DBB7047CA0603D50A464121F5
:103D400004F066BB704790F89810012907D0D0F8AE
:103D50009C1041F00401C0F89C1001207047022122
:103D600080F8981001688A6922F001028A610021B6
:103D7000C0F89C100846704710B590F898200021B4
:103D8000022A06D0D0F89C1041F00801C0F89C101F
:103D900011E00268936943F0010393610268032311
:103DA0000CE0322909D9D0F89C1041F00101C0F88B
:103DB0009C1080F89830012010BD491C9469E407DC
:103DC000EFD09469002124F010049461026802E0AD
:103DD0003229E8D8491C94692407F9D4916941F043
:103DE000020191610021C0F89410012180F898101F
:103DF000002010BD7047704770477047704770478C
:103E0000704700002DE9F041144E0027306807622A
:103E1000C761818C00291ED0EFF31081C468C16294
:103E200072B6058A10E0206958B13068214604F066
:103E300045FB30B127613068818C491E81846169FE
:103E4000C1616D1EADB21834002DECD1306887848D
:103E5000C06A80F31088BDE8F081000028000024CB
:103E6000704770472DE9F84F664C00224FF0B04A7A
:103E70004FF0010B4FF003084FF00F09BBE00BFAB6
:103E800002F6334073D00D7905F00305012D01D002
:103E9000022D15D18768550008FA05FC27EA0C07A2
:103EA000D1F80CC00CFA05FC4CEA070CC0F808C0AD
:103EB0004568B5430E79C6F3001696402E4346601A
:103EC0000D79ED43AD0708D0C668550008FA05F72F
:103ED000BE438F68AF403743C7600D7905F00305D7
:103EE000022D11D1D50800EB85073E6A5507ED0E6E
:103EF00009FA05FC26EA0C06D1F810C00CFA05FCFC
:103F00004CEA060CC7F820C00668550008FA05F709
:103F1000BE430F7907F00307AF40374307604D6892
:103F200015F4403F66D0384D2E6846F002062E60EC
:103F30002D6822F0030606F1B04605F00205009553
:103F4000D6F8087495074FEA157C09FA0CF5AF43CB
:103F50002E4DA84201D1002529E02D4DA84201D1C6
:103F6000012524E02B4DA84202D102251FE041E0AB
:103F7000294DA84201D1032519E0284DA84201D1BD
:103F8000042514E0264DA84201D105250FE0254D5A
:103F9000A84201D106250AE0234DA84201D10725F8
:103FA00005E0224DA84201D1092500E00A2505FAC5
:103FB0000CF53D43C6F80854DAF8005056464F68F1
:103FC0009D43FF0200D51D43356075684F689D43D2
:103FD000BF0200D51D43756065684E689D43B603FA
:103FE00000D51D43656025684E689D43F60300D5E6
:103FF0001D432560521C0B6833FA02F57FF43FAF76
:10400000BDE8F88F80000058F444025800000258C0
:104010000004025800080258000C02580010025810
:104020000014025800180258001C025800240258BC
:104030000AB1816170470904FBE70000014880680C
:104040007047000000000024024881680278114493
:104050008160704700000024032010B500F086F84E
:1040600001F03AF80F4A11681268C1F303230E49B0
:10407000CB5C03F01F03D84002F00F02895C0B4AAF
:1040800001F01F0120FA01F11160094908600F20B9
:1040900000F010F808B1012010BD00F02BF800204E
:1040A00010BD0000184402584C880008100000247D
:1040B0000C00002470B50D4D04462A78A2B14FF4CF
:1040C0007A700B49B0FBF2F00968B1FBF0F001F037
:1040D00029FB48B9102C07D200222146501E00F0BF
:1040E00025F800206C6070BD012070BD0000002428
:1040F0000C000024054808B5016841F00201016088
:10410000006800F00200009008BD0000F44402586E
:10411000002809DB012100F01F02914040098000C6
:1041200000F1E020C0F80011704700000E4BF0B421
:104130001B68C3F30223C3F10704042C00D9042431
:104140001D1D072D01D2002300E0DB1E012606FA0B
:1041500004F56D1E0D409D409E40761E164045EABA
:104160000601F0BC03F044BC0CED00E0064A00F090
:10417000070110684FF6FF03184040EA0120034989
:1041800008431060704700000CED00E00000FA05E5
:10419000BFF34F8F05480168054A01F4E061114300
:1041A0000160BFF34F8F00BFFDE700000CED00E0A2
:1041B0000400FA05124970B50A68D243520705D5C2
:1041C000096801F00701814212D117E00A6822F064
:1041D000070202430A60FFF731FF094D4FF47A7678
:1041E0000446083D06E0FFF729FF001BB04201D955
:1041F000012070BD2868C0438004F4D4002070BD45
:104200000C48025810B500F021FF05490968054A1D
:10421000C1F30211515C01F01F01C84010BD000044
:10422000204402584C880008484910B50A680968BB
:1042300002F00302454B1B1DC1F305311B68434CC3
:104240001434C3F300132468C4F3CC0414FB03F345
:1042500000EE103AB8EE400AE9B33C4B9FED3C1A31
:104260001033F7EE000A62B1DFED3A1A012A01D0ED
:10427000022A5ED002EE101AF8EE422A81EEA22A3D
:104280001AE0324A283A1468A4060DD51268C2F31F
:10429000C104314AE24001EE902AF8EE612A01EEB3
:1042A000901AF8EE611A05E001EE901ADFED2B2A64
:1042B000F8EE611A82EEA12A1968C1F3080101EE35
:1042C000901A1968F8EE611A40EE011A31EEA00A50
:1042D00022EE000A00E033E0C1F3462101EE101A9D
:1042E000B8EE411A31EE201AC0EE011ABCEEE11A06
:1042F00080ED001A1968C1F3064101EE101AB8EEFC
:10430000411A31EE201AC0EE011ABCEEE11A80ED1E
:10431000011A1968C1F3066101EE101AB8EE411ACC
:1043200071EE200A80EE201ABCEEC10A80ED020A6E
:1043300010BD01EE901ADFED0A2AF8EE611AB9E716
:10434000002101604160816010BD000028440258D6
:10435000000000390024744A0090D0030024744CFB
:10436000001BB74B484910B50A68096802F0030200
:10437000454B1B1DC1F305511B68434C1C34C3F353
:1043800000232468C4F3CC0414FB03F300EE103ABA
:10439000B8EE400AE9B33C4B9FED3C1A1833F7EEF8
:1043A000000A62B1DFED3A1A012A01D0022A5ED07A
:1043B00002EE101AF8EE422A81EEA22A1AE0324AE0
:1043C000283A1468A4060DD51268C2F3C104314A14
:1043D000E24001EE902AF8EE612A01EE901AF8EE22
:1043E000611A05E001EE901ADFED2B2AF8EE611A52
:1043F00082EEA12A1968C1F3080101EE901A19682A
:10440000F8EE611A40EE011A31EEA00A22EE000A1F
:1044100000E033E0C1F3462101EE101AB8EE411A74
:1044200031EE201AC0EE011ABCEEE11A80ED001A3E
:104430001968C1F3064101EE101AB8EE411A31EEC7
:10444000201AC0EE011ABCEEE11A80ED011A1968BB
:10445000C1F3066101EE101AB8EE411A71EE200A9E
:1044600080EE201ABCEEC10A80ED020A10BD01EEFA
:10447000901ADFED0A2AF8EE611AB9E7002101600F
:104480004160816010BD00002844025800000039DE
:104490000024744A0090D0030024744C001BB74BD6
:1044A0002DE9FC5F044600680025FD4FC043DFF89E
:1044B000F4A32E46010104F10800019004F1280044
:1044C00000901DD4606E50B1B0F5801F0CD0B0F5D7
:1044D000001F0ED0B0F5401F1ED001250FE0386838
:1044E00040F40030386017E00198022102F0B0FC7F
:1044F00003E00098022102F035FD05000CD02E46A5
:104500002088C043C00523D4A06D05281ED2DFE853
:1045100000F00C11161B1B00DAF80010626E21F47B
:1045200040111143CAF80010EAE7386840F400303F
:10453000386009E00198002102F08AFC03E000984D
:10454000002102F00FFD0546B5B100E001252E4621
:104550002088DFF85483C04340052FD4D4F8A4004A
:10456000B0F5C00F28D010DCB8B1B0F5001F19D0DD
:10457000B0F5800F0FD11AE0DAF80010A26D21F02B
:1045800007011143CAF80010E2E7B0F5000F13D09D
:10459000B0F5200F10D001250FE0386840F400304E
:1045A000386009E00198002102F052FC03E0009815
:1045B000002102F0D7FC054695B12E462088C04365
:1045C000000530D4D4F8A800B0F1407F29D011DC28
:1045D000C0B1B0F1807F1AD0B0F1007F10D11BE0E4
:1045E000D8F80010D4F8A42021F460011143C8F8D1
:1045F0000010E3E7B0F1806F13D0B0F1A06F10D0DE
:1046000001250FE0386840F40030386009E0019877
:10461000002102F01DFC03E00098002102F0A2FC42
:10462000054685B12E462068DFF880B2C043800180
:104630001FD4E06CD8B110280FD0202812D0302819
:1046400015D0012514E0D8F80010D4F8A82021F0E6
:10465000E0611143C8F80010E5E7386840F4003025
:10466000386004E00198022102F0F2FB054675B1C2
:104670002E462088C043C0042BD4E06DB0F5005F07
:1046800020D00DDCA0B1B0F5805F0FD115E0DBF8D4
:104690000010E26C21F030011143CBF80010E8E784
:1046A000B0F5405F13D0B0F5804F10D001250FE07A
:1046B000386840F40030386009E00198002102F0C9
:1046C000C7FB03E00098002102F04CFC05468DB1C9
:1046D0002E462088C043800429D4206EB0F5403F88
:1046E00023D010DC08B3B0F5803F14D0B0F5003F04
:1046F0000FD115E0DAF80010E26D21F4E04111432A
:10470000CAF80010E5E7B0F5802F0ED0B0F5A02F65
:104710000BD001250AE00198012102F099FB03E08A
:104720000098012102F01EFC054695B12E46208816
:10473000C04340042AD4D4F8AC00B0F1405F23D089
:1047400010DC08B3B0F1805F14D0B0F1005F0FD17E
:1047500015E0DAF80010226E21F4E0211143CAF8C6
:104760000010E4E7B0F1804F0ED0B0F1A04F0BD0B5
:1047700001250AE00198012102F06AFB03E000989C
:10478000012102F0EFFB054675B12E462088C0439B
:1047900000041FD4E06ED8B1B0F1805F0ED0B0F14C
:1047A000005F10D0012514E0D8F80010D4F8AC2038
:1047B00021F0E0411143C8F80010E7E7386840F401
:1047C0000030386004E00198012102F041FB054609
:1047D00075B12E462068C043C0011ED4A06CD0B174
:1047E00001280ED0022811D0032814D0012513E08F
:1047F000DAF80010E26E21F040511143CAF80010BF
:10480000E8E7386840F40030386004E0019802219D
:1048100002F01EFB05466DB12E462068C0434002E3
:1048200059D42348016841F480710160FFF706FC08
:1048300081460EE0DBF80010A26C21F00301114369
:10484000CBF80010E9E7FFF7F9FBA0EB09006428BB
:1048500039D817480068C005F5D55DBB1248183037
:104860000068B4F8B01000F4407001F44071884260
:104870000DD00D4818300168026821F4407142F4EF
:1048800080320260026822F4803202600160D4F853
:10489000B000B0F5807F25D1FFF7D0FB814614E052
:1048A0002C44025850440258584402584C44025870
:1048B000004802580EE0FFF7C1FBA0EB090141F2EE
:1048C0008830814201D9032504E0FE480068800752
:1048D000F1D53DB12E462078DFF8EC93C043C007F8
:1048E00020D03BE0D4F8B000C0F3012103290ED062
:1048F000F5484438016821F47C510160F1480168B1
:10490000B4F8B020C2F30B0211430160E3E7EE49B3
:1049100044390A68ED4B22F47C5203EA101002433A
:104920000A60EBE7A06F182816D005DCA0B10828B4
:1049300008D0102804D10AE020280DD028280BD058
:1049400001250AE00198012102F082FA03E00098B3
:10495000012102F007FB054665B12E462078C043D1
:1049600080071ED4606F062819D2DFE800F0160C0D
:1049700011161616D9F80010A26F21F03801114354
:10498000C9F80010EAE70198012102F061FA03E09A
:104990000098012102F0E6FA05467DB100E001250C
:1049A0002E462078C04340071FD4D4F89000062834
:1049B00019D2DFE800F0160C11161616D9F80010FF
:1049C000626F21F007011143C9F80010E9E701986F
:1049D000012102F03DFA03E00098012102F0C2FA41
:1049E0000546A5B100E001252E462078C04380068B
:1049F0002BD4D4F88C00B0F1405F24D011DC10B37C
:104A0000B0F1805F15D0B0F1005F10D116E0D8F89A
:104A10000010D4F8902021F007011143C8F80010CD
:104A2000E3E7B0F1804F0ED0B0F1A04F0BD00125DD
:104A30000AE00198002102F00BFA03E0009802213D
:104A400002F090FA054695B12E462078C043400604
:104A50002BD4D4F89800B0F5406F24D011DC10B3FB
:104A6000B0F5806F15D0B0F5006F10D116E0D9F811
:104A70000010D4F88C2021F0E0411143C9F8001057
:104A8000E3E7B0F5805F0ED0B0F5A05F0BD0012555
:104A90000AE00198002102F0DBF903E0009802210E
:104AA00002F060FA054695B12E462078C043000614
:104AB0002BD4D4F89C00B0F5C04F24D011DC10B337
:104AC000B0F5005F15D0B0F5804F10D116E0D8F8E2
:104AD0000010D4F8982021F4E0511143C8F80010D8
:104AE000E3E7B0F5004F0ED0B0F5204F0BD0012515
:104AF0000AE00198002102F0ABF903E000980221DE
:104B000002F030FA054655B12E462078C043000722
:104B10001ED4D4F88000B0F5805F0AD00FE0D8F83A
:104B20000010D4F89C2021F460411143C8F8001013
:104B3000EBE70098022102F015FA00B10126D9F83E
:104B40000010D4F8802021F440511143C9F800101E
:104B50002078C043C00613D4D4F89400B0F5807F09
:104B600005D10098022102F0FDF900B10126D8F824
:104B70000010D4F8942021F440711143C8F80010BB
:104B80002068C043000316D4D4F8A00038B1B0F5B3
:104B9000803F09D0B0F5003F0BD001250AE0019815
:104BA000002102F055F903E00098022102F0DAF941
:104BB00005468DB12E462068C043400322D4D4F868
:104BC0008400B0F5801F11D0B0F5001F13D0B0F5F0
:104BD000401F15D0012514E0D8F80010D4F8A0200B
:104BE00021F440311143C8F80010E4E7386840F47C
:104BF0000030386004E00098012102F0B3F9054666
:104C00005DB12E462068C043C0031CD4206D70B136
:104C1000B0F5803F10D0012514E0D9F80010D4F889
:104C2000842021F440111143C9F80010EAE73868E4
:104C300040F40030386004E00198022102F008F9E5
:104C40000546DDB12E462068C043800005D400989B
:104C5000022102F087F900B101262068C0438003D9
:104C60001BD4E06FB8B1B0F5807F10D0B0F5007FF5
:104C700011D0B0F5407F0ED001250DE0DBF800101B
:104C8000226D21F480311143CBF80010DBE7386846
:104C900040F400303860EDB32E462068C043C002B7
:104CA00007D4DAF80010226F21F000411143CAF84E
:104CB00000102068C04380020ED4DAF8001021F002
:104CC000807105E07044025854440258CFFFFF0041
:104CD000A26E1143CAF800102068C043400009D4F6
:104CE0003D48016821F4004101600168D4F8B42016
:104CF000114301602068C04307D4DBF80010626DE7
:104D000021F040511143CBF800102068C04300024D
:104D10000AD400E010E0D9F80010D4F8882021F47B
:104D200040011143C9F8001020790025C04300F06C
:104D30000100284309D00EE0D9F80010E26F21F4F9
:104D400040711143C9F80010A7E70198002102F053
:104D50007FF800B106462079C04300F002002843E6
:104D600005D10198012102F073F800B106462079BF
:104D7000C04300F00400284305D10198022102F04D
:104D800067F800B106462079C04300F008002843C8
:104D900005D10098002102F0E5F800B1064620791F
:104DA000C04300F01000284305D10098012102F013
:104DB000D9F800B106462079C04300F02000054331
:104DC00004D10098022102F0CDF800B916B10120FB
:104DD000BDE8FC9F0020FBE7104402582DE9F05F7E
:104DE00004000D467ED0DFF84492D9F8000000F0B0
:104DF0000F00A8420CD2D9F8001021F00F0129436E
:104E0000C9F80010D9F8000000F00F00A84269D1DD
:104E10002078874E40070AD52069316801F070017B
:104E2000884204D9316821F0700101433160207853
:104E3000DFF8008200070CD560694146D8F80020F1
:104E400002F07002904204D90A6822F07002024314
:104E50000A602078C0060CD5A0694146D8F8002029
:104E600002F4E062904204D90A6822F4E06202434C
:104E70000A602078DFF8C0B180060CD5E069594699
:104E8000DBF8002002F07002904204D90A6822F098
:104E9000700202430A60207880070AD5E068316812
:104EA00001F00F01884204D9316821F00F0101435C
:104EB00031602078C0073DD03068A16820F4706070
:104EC000084330605A4960681839022818D003280E
:104ED00019D00968012819D04907002949DADFF8F3
:104EE00050A100E045E0AAF1080ADAF8001021F02C
:104EF00007010143CAF80010FFF7A0F8074611E0C8
:104F000009688903E9E709688901E6E7C905E4E773
:104F1000FFF794F8C11B41F28830814202D9032087
:104F2000BDE8F09FDAF80000616800F03800B0EBEF
:104F3000C10FEDD1207880070AD5E068316801F013
:104F40000F01884204D2316821F00F010143316022
:104F5000D9F80010484601F00F01A9420BD90168A9
:104F600021F00F0129430160006800F00F00A84202
:104F700001D00120D4E7207840070AD520693168A4
:104F800001F07001884204D2316821F070010143C0
:104F90003160207800070CD560694146D8F80020C0
:104FA00002F07002904204D20A6822F070020243BA
:104FB0000A602078C0060CD5A0694246D8F80010D7
:104FC00001F4E061884204D2116821F4E0610143F8
:104FD0001160207880060CD5E0695946DBF8002086
:104FE00002F07002904204D20A6822F0700202437A
:104FF0000A6000F071F83168C1F303220F498A5C3E
:1050000002F01F02D040326802F00F02895C0C4AA5
:1050100001F01F0120FA01F111600A4908600A48F5
:105020000068BDE8F05FFFF745B8000000200052BF
:10503000184402581C440258204402584C88000866
:10504000100000240C0000240400002400B500F02F
:1050500043F80B4A11681268C1F303230949CB5C7A
:1050600003F01F03D84002F00F02895C064A01F0EA
:105070001F0120FA01F11160044A1060084600BDCA
:10508000184402584C880008100000240C0000242A
:1050900000B5FFF7DBFF05490968054AC1F30211B6
:1050A000515C01F01F01C84000BD00001C440258C3
:1050B0004C88000800B5FFF7C9FF05490968054A93
:1050C000C1F30221515C01F01F01C84000BD000086
:1050D0001C4402584C880008434830B50068444CD2
:1050E00010F03801414808D00211082903D01029D6
:1050F0000BD018290BD0104630BD21688906FBD58E
:105100002168C1F3C101C84030BD3A4830BD3649BD
:1051100018310A68096802F00302334B1C33C1F3EB
:1051200005111B68304D03F0010324352D68C5F3CC
:10513000CC0515FB03F300EE103AB8EE400AE9B3D4
:10514000294BDFED2D0A2033B7EE001A62B1DFEDF7
:105150002B1A012A01D0022A3CD002EE101AF8EED6
:10516000422A81EEA22A17E0226892060CD5226814
:10517000C2F3C102D04001EE900AF8EE612A01EEBE
:10518000901AF8EE611A05E001EE901ADFED1C2A84
:10519000F8EE611A82EEA12A1868C0F3080001EE49
:1051A000900A1868F8EE611A40EE201A31EE810A72
:1051B00022EE000AC0F34620401C00E011E000EEA1
:1051C000900AF8EE600A80EE201ABCEEC10A10EEDA
:1051D000100A30BD01EE901ADFED0A2AF8EE611ACE
:1051E000D8E7002030BD0000104402580090D003E2
:1051F0000044025800366E01000000390024744A51
:105200000024744C001BB74B2DE9F05F040078D0EC
:105210002078DFF8F893FE4EFE4DC00747D0D9F84E
:105220000000316800F03800102815D0182803D18C
:1052300001F0030002280FD06068B0F5803F12D063
:1052400010B1B0F5A02F18D0286820F48030286065
:10525000286820F4802009E02868800327D560684A
:105260000028D4D023E0286840F4803028606068AB
:1052700088B1FEF7E3FE074609E0286840F4802085
:105280002860F0E7FEF7DAFEC01B64287ED82868A5
:105290008003F7D50BE0FEF7D1FE074604E0FEF7EA
:1052A000CDFEC01B6428F1D828688003F7D420788D
:1052B000800753D5D9F80000316810F03800DFF8C6
:1052C00058830ED0182801D188070AD0E068A0B30F
:1052D000296821F0190101432960FEF7AFFE074656
:1052E00027E02868400702D5E06800288FD02868AA
:1052F000E16820F0190008432860FEF79FFE07468A
:1053000005E0D1E0FEF79AFEC01B0228BED828684F
:105310004007F7D5D8F80010227C21F0FE4141EA81
:105320000261C8F8001019E0FEF788FEC01B0228D1
:10533000ACD828684007F7D5ECE7FFE7286820F0ED
:1053400001002860FEF77AFE074604E0FEF776FECD
:10535000C01B02289AD828684007F7D42078C006D6
:1053600046D5D9F80000316800F03800DFF89C829B
:105370000828A8F1040812D0182803D101F003006E
:1053800001280CD0E0690028286800E0C7E020D0A0
:1053900040F080002860FEF751FE074615E02868BF
:1053A000C00502D5E06980287ED1D8F8001094F8B5
:1053B000202021F07C5141EA0261C8F8001017E07A
:1053C000FEF73CFEC01B0228A0D82868C005F7D510
:1053D000EBE720F080002860FEF730FE074604E08F
:1053E000FEF72CFEC01B022890D82868C005F7D411
:1053F0002078000728D5864960694C310028884606
:105400000846096810D041F001010160FEF716FE60
:10541000074604E0FEF712FEC01B022888D8D8F821
:1054200000008007F6D50FE021F001010160FEF7D2
:1054300005FE074604E0FEF701FEC01B02286ED8F9
:10544000D8F800008007F6D42078800622D5A0691D
:10545000002828680FD040F480502860FEF7EEFD49
:10546000074604E0FEF7EAFDC01B022857D828686B
:105470008004F7D50EE020F480502860FEF7DEFDB2
:10548000074604E0FEF7DAFDC01B022847D828686B
:105490008004F7D4207840074FD5DFF88081D8F812
:1054A000001041F4807100E017E1C8F80010FEF729
:1054B000C5FD074604E0FEF7C1FDC01B64282ED8D9
:1054C000D8F80000C005F6D5514FA068483701282C
:1054D0000AD008B1052813D0386820F001003860E0
:1054E000386820F0040002E0386840F001003860BD
:1054F000A06841F2883A98B1FEF7A0FD80460AE024
:10550000386840F004003860EEE7FEF797FDA0EB46
:105510000801514503D838688007F6D50DE07FE0D3
:10552000FEF78CFD804605E0FEF788FDA0EB080144
:10553000514575D838688007F6D4616A002970D063
:10554000D9F800004FF6F87BDFF8C48008F10808AE
:10555000C0F3C200032808F10409A8F1040A7DD0B1
:105560002868022920F08070286003D0FEF766FDCD
:10557000044687E0FEF762FD074604E0FEF75EFDA5
:10558000C01B02287BD828688001F7D4306840F21D
:10559000F3318843E16A40EA0110A16A08433060B0
:1055A00094F834004FF4FE02218E4002491EA0F50B
:1055B000007080B2C1F308010843218F491E02EA3E
:1055C0000141084394F83C101202491E02EA0161AD
:1055D0000843C8F80000DAF80010504621F0010135
:1055E000CAF80010D9F80020A36C22EA0B0242EAA4
:1055F000C302C9F80020DAF80010226C21F00C0177
:105600001143CAF80010DAF800100BE010440258F9
:1056100028440258004402580444025800480258E2
:105620002DE07DE0626C21F0020111430160016810
:1056300041F480310160016841F40031016001688A
:1056400041F480210160016841F001010160286896
:1056500040F080702860FEF7F1FC00E016E00446A0
:1056600004E0FEF7EBFC001B022808D82868800144
:10567000F7D555E0FEF7E2FC001B022802D9032013
:10568000BDE8F09F28688001F4D449E03268D8F87A
:105690000000012921D0A36A02F0030199421CD124
:1056A000E16AC2F30512914217D1216BC0F30802DF
:1056B000491E8A4211D1616BC0F34622491E9142B4
:1056C0000BD1A16BC0F30642491E914205D1E16B9B
:1056D000C0F30660491E814201D00120D0E7D9F80D
:1056E00000004F46A16CC0F3CC00814218D0DAF81C
:1056F0000000564620F00100CAF80000FEF79EFCAC
:105700000546FEF79BFCA842FBD03868A16C20EA56
:105710000B0040EAC1003860306840F001003060A2
:105720000020ADE7401EB0F1807F10B501D301200D
:1057300010BD4FF0E02460610F21601702F058F9AE
:105740000020A06107202061002010BD7047704735
:1057500070470000F0B590F83C20012A42D00125A6
:1057600080F83C50022280F83D2003685A689C680B
:105770001D4E1E4FB34201D0BB4204D122F4700C27
:105780004A6842EA0C0222F0700C0A6842EA0C02F3
:105790005A600268B24219D0B2F1804F16D0144B51
:1057A0009A4213D0134B9A4210D0134B9A420DD009
:1057B000BA420BD0114B9A4208D0114B9A4205D0F5
:1057C000104B9A4202D0104B9A4204D1896824F0BF
:1057D00080031943916080F83D50002180F83C100F
:1057E0000846F0BD0220F0BD000001400004014069
:1057F0000004004000080040000C00400018004079
:105800000040014000E0004000E4004010B504000A
:1058100003D094F83D0010B107E0012010BD002036
:1058200084F83C00204600F023F8022084F83D0074
:105830002068211D01F0DCFC012084F8480084F878
:105840003E0084F83F0084F8400084F8410084F86A
:10585000420084F8430084F8440084F8450084F84A
:10586000460084F8470084F83D00002010BD000089
:1058700008B50068144A154990420ED1086840F0F6
:105880000200086008680022114600F00200009043
:105890001D20FEF74BFC1D2010E00D4A904211D157
:1058A000086840F00400086008680022114600F013
:1058B000040000901E20FEF739FC1E20BDE80840C1
:1058C000FEF726BC08BD000000040040E844025872
:1058D0000008004090F83D10012901D001207047D8
:1058E000022180F83D100168CA6842F00102CA60D6
:1058F0000068164988421AD0B0F1804F17D0144979
:10590000884214D01349884211D0134988420ED0DE
:10591000124988420BD01249884208D01149884266
:1059200005D01149884202D01049884207D18168C8
:105930000F4A1140062906D0B1F5803F03D0016817
:1059400041F00101016000207047000000000140AB
:105950000004004000080040000C0040000401402A
:10596000001800400040014000E0004000E400401A
:105970000700010070B5044690F83C00002501289E
:1059800015D0012684F83C60022084F83D00206890
:105990008268364B1A4022F47F4282600868702881
:1059A00002462FD010DC10F00F0F03D022E04FF092
:1059B000020070BD4FEA201007281BD2DFE800F07C
:1059C000535353534B394100B0F1101F4BD009DCF6
:1059D000B0F5805F0FD0B0F5005F1ED0B0F5801F2E
:1059E00008D140E02038B0F580103CD010283AD0E3
:1059F000202838D0012584F83D60002084F83C0040
:105A0000284670BD4A682068D1E9021301F062FCA3
:105A10002068816841F0770109E04A682068D1E98F
:105A2000021301F057FC2068816841F480418160D5
:105A3000E1E7CA684968206801F060FC20685021ED
:105A400006E0CA684968206801F069FC20686021A6
:105A500001F04AFCCFE7CA684968206801F04EFCB3
:105A600020684021F4E720681146F1E788FFCEFF67
:105A700070472DE9F04104460068C66805694FF09B
:105A80000007A90713D5B10711D5F91E016101203F
:105A90002077206880698007204602D0FFF7E8FF62
:105AA00004E000F08BF8204600F089F827776807BB
:105AB00016D5700714D521686FF004000861022024
:105AC00020772068806910F4407F204602D0FFF7DD
:105AD000CFFF04E000F072F8204600F070F827775E
